{
  "_format": "hh-sol-artifact-1",
  "contractName": "SupplyChain",
  "sourceName": "contracts/SupplyChain.sol",
  "abi": [
    {
      "inputs": [
        {
          "internalType": "uint256",
          "name": "productUId",
          "type": "uint256"
        },
        {
          "internalType": "uint256",
          "name": "time",
          "type": "uint256"
        }
      ],
      "name": "addArrival",
      "outputs": [],
      "stateMutability": "nonpayable",
      "type": "function"
    },
    {
      "inputs": [
        {
          "internalType": "uint256",
          "name": "productUId",
          "type": "uint256"
        },
        {
          "internalType": "uint256",
          "name": "time",
          "type": "uint256"
        },
        {
          "internalType": "address",
          "name": "nextHolder",
          "type": "address"
        }
      ],
      "name": "addDeparture",
      "outputs": [],
      "stateMutability": "nonpayable",
      "type": "function"
    },
    {
      "inputs": [
        {
          "internalType": "string",
          "name": "name",
          "type": "string"
        },
        {
          "internalType": "string",
          "name": "pType",
          "type": "string"
        },
        {
          "internalType": "uint256",
          "name": "manTime",
          "type": "uint256"
        },
        {
          "internalType": "uint32",
          "name": "quantity",
          "type": "uint32"
        },
        {
          "internalType": "uint32",
          "name": "price",
          "type": "uint32"
        },
        {
          "internalType": "string",
          "name": "currency",
          "type": "string"
        }
      ],
      "name": "addProduct",
      "outputs": [],
      "stateMutability": "nonpayable",
      "type": "function"
    },
    {
      "inputs": [
        {
          "internalType": "string",
          "name": "name",
          "type": "string"
        },
        {
          "internalType": "string",
          "name": "uType",
          "type": "string"
        }
      ],
      "name": "addUser",
      "outputs": [],
      "stateMutability": "nonpayable",
      "type": "function"
    },
    {
      "inputs": [],
      "name": "getAllProducts",
      "outputs": [
        {
          "components": [
            {
              "internalType": "string",
              "name": "name",
              "type": "string"
            },
            {
              "internalType": "string",
              "name": "pType",
              "type": "string"
            },
            {
              "internalType": "address",
              "name": "manufacturer",
              "type": "address"
            },
            {
              "internalType": "uint256",
              "name": "manTime",
              "type": "uint256"
            },
            {
              "internalType": "uint32",
              "name": "quantity",
              "type": "uint32"
            },
            {
              "internalType": "uint32",
              "name": "price",
              "type": "uint32"
            },
            {
              "internalType": "string",
              "name": "currency",
              "type": "string"
            }
          ],
          "internalType": "struct SupplyChain.Product[]",
          "name": "",
          "type": "tuple[]"
        }
      ],
      "stateMutability": "view",
      "type": "function"
    },
    {
      "inputs": [
        {
          "internalType": "uint256",
          "name": "count",
          "type": "uint256"
        }
      ],
      "name": "getAllTransits",
      "outputs": [
        {
          "components": [
            {
              "internalType": "uint256",
              "name": "uId",
              "type": "uint256"
            },
            {
              "components": [
                {
                  "internalType": "string",
                  "name": "name",
                  "type": "string"
                },
                {
                  "internalType": "string",
                  "name": "pType",
                  "type": "string"
                },
                {
                  "internalType": "address",
                  "name": "manufacturer",
                  "type": "address"
                },
                {
                  "internalType": "uint256",
                  "name": "manTime",
                  "type": "uint256"
                },
                {
                  "internalType": "uint32",
                  "name": "quantity",
                  "type": "uint32"
                },
                {
                  "internalType": "uint32",
                  "name": "price",
                  "type": "uint32"
                },
                {
                  "internalType": "string",
                  "name": "currency",
                  "type": "string"
                }
              ],
              "internalType": "struct SupplyChain.Product",
              "name": "product",
              "type": "tuple"
            },
            {
              "components": [
                {
                  "internalType": "address",
                  "name": "holder",
                  "type": "address"
                },
                {
                  "internalType": "enum SupplyChain.TransitTypes",
                  "name": "transitType",
                  "type": "uint8"
                },
                {
                  "internalType": "uint256",
                  "name": "time",
                  "type": "uint256"
                }
              ],
              "internalType": "struct SupplyChain.Transit",
              "name": "transit",
              "type": "tuple"
            }
          ],
          "internalType": "struct SupplyChain.ViewRecentTransit[]",
          "name": "",
          "type": "tuple[]"
        }
      ],
      "stateMutability": "view",
      "type": "function"
    },
    {
      "inputs": [
        {
          "internalType": "uint256",
          "name": "productUId",
          "type": "uint256"
        }
      ],
      "name": "getProduct",
      "outputs": [
        {
          "components": [
            {
              "internalType": "uint256",
              "name": "uId",
              "type": "uint256"
            },
            {
              "components": [
                {
                  "internalType": "string",
                  "name": "name",
                  "type": "string"
                },
                {
                  "internalType": "string",
                  "name": "pType",
                  "type": "string"
                },
                {
                  "internalType": "address",
                  "name": "manufacturer",
                  "type": "address"
                },
                {
                  "internalType": "uint256",
                  "name": "manTime",
                  "type": "uint256"
                },
                {
                  "internalType": "uint32",
                  "name": "quantity",
                  "type": "uint32"
                },
                {
                  "internalType": "uint32",
                  "name": "price",
                  "type": "uint32"
                },
                {
                  "internalType": "string",
                  "name": "currency",
                  "type": "string"
                }
              ],
              "internalType": "struct SupplyChain.Product",
              "name": "product",
              "type": "tuple"
            },
            {
              "components": [
                {
                  "internalType": "address",
                  "name": "holder",
                  "type": "address"
                },
                {
                  "internalType": "enum SupplyChain.TransitTypes",
                  "name": "transitType",
                  "type": "uint8"
                },
                {
                  "internalType": "uint256",
                  "name": "time",
                  "type": "uint256"
                }
              ],
              "internalType": "struct SupplyChain.Transit[]",
              "name": "allTransits",
              "type": "tuple[]"
            }
          ],
          "internalType": "struct SupplyChain.ViewProduct",
          "name": "",
          "type": "tuple"
        }
      ],
      "stateMutability": "view",
      "type": "function"
    },
    {
      "inputs": [
        {
          "internalType": "uint256",
          "name": "",
          "type": "uint256"
        }
      ],
      "name": "productUIds",
      "outputs": [
        {
          "internalType": "uint256",
          "name": "",
          "type": "uint256"
        }
      ],
      "stateMutability": "view",
      "type": "function"
    },
    {
      "inputs": [
        {
          "internalType": "uint256",
          "name": "",
          "type": "uint256"
        }
      ],
      "name": "products",
      "outputs": [
        {
          "internalType": "string",
          "name": "name",
          "type": "string"
        },
        {
          "internalType": "string",
          "name": "pType",
          "type": "string"
        },
        {
          "internalType": "address",
          "name": "manufacturer",
          "type": "address"
        },
        {
          "internalType": "uint256",
          "name": "manTime",
          "type": "uint256"
        },
        {
          "internalType": "uint32",
          "name": "quantity",
          "type": "uint32"
        },
        {
          "internalType": "uint32",
          "name": "price",
          "type": "uint32"
        },
        {
          "internalType": "string",
          "name": "currency",
          "type": "string"
        }
      ],
      "stateMutability": "view",
      "type": "function"
    },
    {
      "inputs": [
        {
          "internalType": "uint256",
          "name": "",
          "type": "uint256"
        },
        {
          "internalType": "uint256",
          "name": "",
          "type": "uint256"
        }
      ],
      "name": "transits",
      "outputs": [
        {
          "internalType": "address",
          "name": "holder",
          "type": "address"
        },
        {
          "internalType": "enum SupplyChain.TransitTypes",
          "name": "transitType",
          "type": "uint8"
        },
        {
          "internalType": "uint256",
          "name": "time",
          "type": "uint256"
        }
      ],
      "stateMutability": "view",
      "type": "function"
    },
    {
      "inputs": [
        {
          "internalType": "address",
          "name": "",
          "type": "address"
        }
      ],
      "name": "users",
      "outputs": [
        {
          "internalType": "string",
          "name": "name",
          "type": "string"
        },
        {
          "internalType": "enum SupplyChain.UserTypes",
          "name": "uType",
          "type": "uint8"
        }
      ],
      "stateMutability": "view",
      "type": "function"
    }
  ],
  "bytecode": "0x608060405234801561001057600080fd5b50613f05806100206000396000f3fe608060405234801561001057600080fd5b50600436106100a95760003560e01c80637acc0b20116100715780637acc0b2014610166578063a87430ba1461019c578063b9db15b4146101cd578063d8049771146101fd578063ea59a3d714610219578063fcadde3a14610249576100a9565b806302ee3a52146100ae578063079eaf34146100cc57806325a1b85e146100e85780632e8d18cf146101185780636768e1ac1461014a575b600080fd5b6100b6610265565b6040516100c39190612a99565b60405180910390f35b6100e660048036038101906100e19190612b2a565b610632565b005b61010260048036038101906100fd9190612bd7565b61091f565b60405161010f9190612c13565b60405180910390f35b610132600480360381019061012d9190612c2e565b610943565b60405161014193929190612cf4565b60405180910390f35b610164600480360381019061015f9190612d57565b6109b7565b005b610180600480360381019061017b9190612bd7565b610f7b565b6040516101939796959493929190612e9f565b60405180910390f35b6101b660048036038101906101b19190612f4f565b611195565b6040516101c4929190612fc4565b60405180910390f35b6101e760048036038101906101e29190612bd7565b61124e565b6040516101f4919061314b565b60405180910390f35b61021760048036038101906102129190612c2e565b6116b6565b005b610233600480360381019061022e9190612bd7565b611a3f565b604051610240919061327f565b60405180910390f35b610263600480360381019061025e91906132a1565b612061565b005b6060610288604051806060016040528060228152602001613eae602291396123ec565b60006102946005612485565b67ffffffffffffffff8111156102ad576102ac6132f4565b5b6040519080825280602002602001820160405280156102e657816020015b6102d36126f3565b8152602001906001900390816102cb5790505b50905060005b6102f66005612485565b81101561062a57600160006003838154811061031557610314613323565b5b906000526020600020015481526020019081526020016000206040518060e001604052908160008201805461034990613381565b80601f016020809104026020016040519081016040528092919081815260200182805461037590613381565b80156103c25780601f10610397576101008083540402835291602001916103c2565b820191906000526020600020905b8154815290600101906020018083116103a557829003601f168201915b505050505081526020016001820180546103db90613381565b80601f016020809104026020016040519081016040528092919081815260200182805461040790613381565b80156104545780601f1061042957610100808354040283529160200191610454565b820191906000526020600020905b81548152906001019060200180831161043757829003601f168201915b505050505081526020016002820160009054906101000a900473ffffffffffffffffffffffffffffffffffffffff1673ffffffffffffffffffffffffffffffffffffffff1673ffffffffffffffffffffffffffffffffffffffff168152602001600382015481526020016004820160009054906101000a900463ffffffff1663ffffffff1663ffffffff1681526020016004820160049054906101000a900463ffffffff1663ffffffff1663ffffffff16815260200160058201805461051990613381565b80601f016020809104026020016040519081016040528092919081815260200182805461054590613381565b80156105925780601f1061056757610100808354040283529160200191610592565b820191906000526020600020905b81548152906001019060200180831161057557829003601f168201915b5050505050815250508282815181106105ae576105ad613323565b5b60200260200101819052506106176040518060400160405280601081526020017f50726f64756374202564206973202573000000000000000000000000000000008152508284848151811061060657610605613323565b5b602002602001015160000151612493565b8080610622906133e1565b9150506102ec565b508091505090565b60405180602001604052806000815250805190602001206000803373ffffffffffffffffffffffffffffffffffffffff1673ffffffffffffffffffffffffffffffffffffffff16815260200190815260200160002060000160405161069791906134cc565b6040518091039020146106df576040517f08c379a00000000000000000000000000000000000000000000000000000000081526004016106d69061352f565b60405180910390fd5b6106e7612752565b84848080601f016020809104026020016040519081016040528093929190818152602001838380828437600081840152601f19601f8201169050808301925050505050505081600001819052506040518060400160405280600c81526020017f6d616e7566616374757265720000000000000000000000000000000000000000815250805190602001208383604051610781929190613583565b6040518091039020036107c4576000816020019060018111156107a7576107a6612c7d565b5b908160018111156107bb576107ba612c7d565b5b81525050610890565b6040518060400160405280600881526020017f737570706c696572000000000000000000000000000000000000000000000000815250805190602001208383604051610811929190613583565b6040518091039020036108545760018160200190600181111561083757610836612c7d565b5b9081600181111561084b5761084a612c7d565b5b8152505061088f565b6040517f08c379a0000000000000000000000000000000000000000000000000000000008152600401610886906135e8565b60405180910390fd5b5b806000803373ffffffffffffffffffffffffffffffffffffffff1673ffffffffffffffffffffffffffffffffffffffff16815260200190815260200160002060008201518160000190816108e491906137b4565b5060208201518160010160006101000a81548160ff021916908360018111156109105761090f612c7d565b5b02179055509050505050505050565b6003818154811061092f57600080fd5b906000526020600020016000915090505481565b6002602052816000526040600020818154811061095f57600080fd5b9060005260206000209060020201600091509150508060000160009054906101000a900473ffffffffffffffffffffffffffffffffffffffff16908060000160149054906101000a900460ff16908060010154905083565b60008363ffffffff16141580156109d5575060008463ffffffff1614155b610a14576040517f08c379a0000000000000000000000000000000000000000000000000000000008152600401610a0b906138d2565b60405180910390fd5b60006001811115610a2857610a27612c7d565b5b6000803373ffffffffffffffffffffffffffffffffffffffff1673ffffffffffffffffffffffffffffffffffffffff16815260200190815260200160002060010160009054906101000a900460ff166001811115610a8957610a88612c7d565b5b14610ac9576040517f08c379a0000000000000000000000000000000000000000000000000000000008152600401610ac090613964565b60405180910390fd5b610ad16126f3565b89898080601f016020809104026020016040519081016040528093929190818152602001838380828437600081840152601f19601f82011690508083019250505050505050816000018190525087878080601f016020809104026020016040519081016040528093929190818152602001838380828437600081840152601f19601f82011690508083019250505050505050816020018190525033816040019073ffffffffffffffffffffffffffffffffffffffff16908173ffffffffffffffffffffffffffffffffffffffff16815250508581606001818152505084816080019063ffffffff16908163ffffffff1681525050838160a0019063ffffffff16908163ffffffff168152505082828080601f016020809104026020016040519081016040528093929190818152602001838380828437600081840152601f19601f820116905080830192505050505050508160c001819052506000610c37878c8c612532565b9050600073ffffffffffffffffffffffffffffffffffffffff166001600083815260200190815260200160002060020160009054906101000a900473ffffffffffffffffffffffffffffffffffffffff1673ffffffffffffffffffffffffffffffffffffffff1614610cde576040517f08c379a0000000000000000000000000000000000000000000000000000000008152600401610cd5906139d0565b60405180910390fd5b81600160008381526020019081526020016000206000820151816000019081610d0791906137b4565b506020820151816001019081610d1d91906137b4565b5060408201518160020160006101000a81548173ffffffffffffffffffffffffffffffffffffffff021916908373ffffffffffffffffffffffffffffffffffffffff1602179055506060820151816003015560808201518160040160006101000a81548163ffffffff021916908363ffffffff16021790555060a08201518160040160046101000a81548163ffffffff021916908363ffffffff16021790555060c0820151816005019081610dd291906137b4565b509050506003819080600181540180825580915050600190039060005260206000200160009091909190915055610e09600561257f565b610e1161277e565b33816000019073ffffffffffffffffffffffffffffffffffffffff16908173ffffffffffffffffffffffffffffffffffffffff1681525050600081602001906001811115610e6257610e61612c7d565b5b90816001811115610e7657610e75612c7d565b5b81525050878160400181815250506002600083815260200190815260200160002081908060018154018082558091505060019003906000526020600020906002020160009091909190915060008201518160000160006101000a81548173ffffffffffffffffffffffffffffffffffffffff021916908373ffffffffffffffffffffffffffffffffffffffff16021790555060208201518160000160146101000a81548160ff02191690836001811115610f3357610f32612c7d565b5b02179055506040820151816001015550506004829080600181540180825580915050600190039060005260206000200160009091909190915055505050505050505050505050565b6001602052806000526040600020600091509050806000018054610f9e90613381565b80601f0160208091040260200160405190810160405280929190818152602001828054610fca90613381565b80156110175780601f10610fec57610100808354040283529160200191611017565b820191906000526020600020905b815481529060010190602001808311610ffa57829003601f168201915b50505050509080600101805461102c90613381565b80601f016020809104026020016040519081016040528092919081815260200182805461105890613381565b80156110a55780601f1061107a576101008083540402835291602001916110a5565b820191906000526020600020905b81548152906001019060200180831161108857829003601f168201915b5050505050908060020160009054906101000a900473ffffffffffffffffffffffffffffffffffffffff16908060030154908060040160009054906101000a900463ffffffff16908060040160049054906101000a900463ffffffff169080600501805461111290613381565b80601f016020809104026020016040519081016040528092919081815260200182805461113e90613381565b801561118b5780601f106111605761010080835404028352916020019161118b565b820191906000526020600020905b81548152906001019060200180831161116e57829003601f168201915b5050505050905087565b60006020528060005260406000206000915090508060000180546111b890613381565b80601f01602080910402602001604051908101604052809291908181526020018280546111e490613381565b80156112315780601f1061120657610100808354040283529160200191611231565b820191906000526020600020905b81548152906001019060200180831161121457829003601f168201915b5050505050908060010160009054906101000a900460ff16905082565b6112566127c7565b600073ffffffffffffffffffffffffffffffffffffffff166001600084815260200190815260200160002060020160009054906101000a900473ffffffffffffffffffffffffffffffffffffffff1673ffffffffffffffffffffffffffffffffffffffff16036112fb576040517f08c379a00000000000000000000000000000000000000000000000000000000081526004016112f290613a3c565b60405180910390fd5b6000600160008481526020019081526020016000206040518060e001604052908160008201805461132b90613381565b80601f016020809104026020016040519081016040528092919081815260200182805461135790613381565b80156113a45780601f10611379576101008083540402835291602001916113a4565b820191906000526020600020905b81548152906001019060200180831161138757829003601f168201915b505050505081526020016001820180546113bd90613381565b80601f01602080910402602001604051908101604052809291908181526020018280546113e990613381565b80156114365780601f1061140b57610100808354040283529160200191611436565b820191906000526020600020905b81548152906001019060200180831161141957829003601f168201915b505050505081526020016002820160009054906101000a900473ffffffffffffffffffffffffffffffffffffffff1673ffffffffffffffffffffffffffffffffffffffff1673ffffffffffffffffffffffffffffffffffffffff168152602001600382015481526020016004820160009054906101000a900463ffffffff1663ffffffff1663ffffffff1681526020016004820160049054906101000a900463ffffffff1663ffffffff1663ffffffff1681526020016005820180546114fb90613381565b80601f016020809104026020016040519081016040528092919081815260200182805461152790613381565b80156115745780601f1061154957610100808354040283529160200191611574565b820191906000526020600020905b81548152906001019060200180831161155757829003601f168201915b5050505050815250509050600060026000858152602001908152602001600020805480602002602001604051908101604052809291908181526020016000905b8282101561168157838290600052602060002090600202016040518060600160405290816000820160009054906101000a900473ffffffffffffffffffffffffffffffffffffffff1673ffffffffffffffffffffffffffffffffffffffff1673ffffffffffffffffffffffffffffffffffffffff1681526020016000820160149054906101000a900460ff16600181111561165257611651612c7d565b5b600181111561166457611663612c7d565b5b8152602001600182015481525050815260200190600101906115b4565b50505050905061168f6127c7565b84816000018181525050828160200181905250818160400181905250809350505050919050565b6116f46040518060400160405280601281526020017f416464696e67206e6577206172726976616c00000000000000000000000000008152506123ec565b6116fc61277e565b60026000848152602001908152602001600020600160026000868152602001908152602001600020805490506117329190613a5c565b8154811061174357611742613323565b5b90600052602060002090600202016040518060600160405290816000820160009054906101000a900473ffffffffffffffffffffffffffffffffffffffff1673ffffffffffffffffffffffffffffffffffffffff1673ffffffffffffffffffffffffffffffffffffffff1681526020016000820160149054906101000a900460ff1660018111156117d7576117d6612c7d565b5b60018111156117e9576117e8612c7d565b5b8152602001600182015481525050905060018081111561180c5761180b612c7d565b5b8160200151600181111561182357611822612c7d565b5b14611863576040517f08c379a000000000000000000000000000000000000000000000000000000000815260040161185a90613b02565b60405180910390fd5b3373ffffffffffffffffffffffffffffffffffffffff16816000015173ffffffffffffffffffffffffffffffffffffffff16036118d5576040517f08c379a00000000000000000000000000000000000000000000000000000000081526004016118cc90613b94565b60405180910390fd5b6118dd61277e565b33816000019073ffffffffffffffffffffffffffffffffffffffff16908173ffffffffffffffffffffffffffffffffffffffff16815250508281604001818152505060008160200190600181111561193857611937612c7d565b5b9081600181111561194c5761194b612c7d565b5b815250506002600085815260200190815260200160002081908060018154018082558091505060019003906000526020600020906002020160009091909190915060008201518160000160006101000a81548173ffffffffffffffffffffffffffffffffffffffff021916908373ffffffffffffffffffffffffffffffffffffffff16021790555060208201518160000160146101000a81548160ff021916908360018111156119ff576119fe612c7d565b5b0217905550604082015181600101555050600484908060018154018082558091505060019003906000526020600020016000909190919091505550505050565b6060611a7f6040518060400160405280601581526020017f56696577696e67206c617374207472616e7369747300000000000000000000008152506123ec565b600480549050821115611a955760048054905091505b611ad46040518060400160405280600881526020017f636f756e7420256400000000000000000000000000000000000000000000000081525083612595565b60008267ffffffffffffffff811115611af057611aef6132f4565b5b604051908082528060200260200182016040528015611b2957816020015b611b166127ee565b815260200190600190039081611b0e5790505b50905060008367ffffffffffffffff811115611b4857611b476132f4565b5b604051908082528060200260200182016040528015611b765781602001602082028036833780820191505090505b5090506000806001600480549050611b8e9190613a5c565b90505b85600480549050611ba29190613a5c565b811261205557600060048281548110611bbe57611bbd613323565b5b90600052602060002001549050611bd481612631565b6000805b84811015611c235782868281518110611bf457611bf3613323565b5b602002602001015103611c10578180611c0c906133e1565b9250505b8080611c1b906133e1565b915050611bd8565b5081868581518110611c3857611c37613323565b5b60200260200101516000018181525050600160008381526020019081526020016000206040518060e0016040529081600082018054611c7690613381565b80601f0160208091040260200160405190810160405280929190818152602001828054611ca290613381565b8015611cef5780601f10611cc457610100808354040283529160200191611cef565b820191906000526020600020905b815481529060010190602001808311611cd257829003601f168201915b50505050508152602001600182018054611d0890613381565b80601f0160208091040260200160405190810160405280929190818152602001828054611d3490613381565b8015611d815780601f10611d5657610100808354040283529160200191611d81565b820191906000526020600020905b815481529060010190602001808311611d6457829003601f168201915b505050505081526020016002820160009054906101000a900473ffffffffffffffffffffffffffffffffffffffff1673ffffffffffffffffffffffffffffffffffffffff1673ffffffffffffffffffffffffffffffffffffffff168152602001600382015481526020016004820160009054906101000a900463ffffffff1663ffffffff1663ffffffff1681526020016004820160049054906101000a900463ffffffff1663ffffffff1663ffffffff168152602001600582018054611e4690613381565b80601f0160208091040260200160405190810160405280929190818152602001828054611e7290613381565b8015611ebf5780601f10611e9457610100808354040283529160200191611ebf565b820191906000526020600020905b815481529060010190602001808311611ea257829003601f168201915b505050505081525050868581518110611edb57611eda613323565b5b602002602001015160200181905250600260008381526020019081526020016000208160016002600086815260200190815260200160002080549050611f219190613a5c565b611f2b9190613a5c565b81548110611f3c57611f3b613323565b5b90600052602060002090600202016040518060600160405290816000820160009054906101000a900473ffffffffffffffffffffffffffffffffffffffff1673ffffffffffffffffffffffffffffffffffffffff1673ffffffffffffffffffffffffffffffffffffffff1681526020016000820160149054906101000a900460ff166001811115611fd057611fcf612c7d565b5b6001811115611fe257611fe1612c7d565b5b815260200160018201548152505086858151811061200357612002613323565b5b6020026020010151604001819052508185858151811061202657612025613323565b5b602002602001018181525050838061203d906133e1565b9450505050808061204d90613bbe565b915050611b91565b50829350505050919050565b61209f6040518060400160405280601481526020017f416464696e67206e6577206465706172747572650000000000000000000000008152506123ec565b6120a761277e565b60026000858152602001908152602001600020600160026000878152602001908152602001600020805490506120dd9190613a5c565b815481106120ee576120ed613323565b5b90600052602060002090600202016040518060600160405290816000820160009054906101000a900473ffffffffffffffffffffffffffffffffffffffff1673ffffffffffffffffffffffffffffffffffffffff1673ffffffffffffffffffffffffffffffffffffffff1681526020016000820160149054906101000a900460ff16600181111561218257612181612c7d565b5b600181111561219457612193612c7d565b5b81526020016001820154815250509050600060018111156121b8576121b7612c7d565b5b816020015160018111156121cf576121ce612c7d565b5b1461220f576040517f08c379a000000000000000000000000000000000000000000000000000000000815260040161220690613c78565b60405180910390fd5b8173ffffffffffffffffffffffffffffffffffffffff16816000015173ffffffffffffffffffffffffffffffffffffffff1603612281576040517f08c379a000000000000000000000000000000000000000000000000000000000815260040161227890613d0a565b60405180910390fd5b61228961277e565b82816000019073ffffffffffffffffffffffffffffffffffffffff16908173ffffffffffffffffffffffffffffffffffffffff1681525050838160400181815250506001816020019060018111156122e4576122e3612c7d565b5b908160018111156122f8576122f7612c7d565b5b815250506002600086815260200190815260200160002081908060018154018082558091505060019003906000526020600020906002020160009091909190915060008201518160000160006101000a81548173ffffffffffffffffffffffffffffffffffffffff021916908373ffffffffffffffffffffffffffffffffffffffff16021790555060208201518160000160146101000a81548160ff021916908360018111156123ab576123aa612c7d565b5b021790555060408201518160010155505060048590806001815401808255809150506001900390600052602060002001600090919091909150555050505050565b612482816040516024016124009190613d2a565b6040516020818303038152906040527f41304fac000000000000000000000000000000000000000000000000000000007bffffffffffffffffffffffffffffffffffffffffffffffffffffffff19166020820180517bffffffffffffffffffffffffffffffffffffffffffffffffffffffff83818316178352505050506126ca565b50565b600081600001549050919050565b61252d8383836040516024016124ab93929190613d4c565b6040516020818303038152906040527fa3f5c739000000000000000000000000000000000000000000000000000000007bffffffffffffffffffffffffffffffffffffffffffffffffffffffff19166020820180517bffffffffffffffffffffffffffffffffffffffffffffffffffffffff83818316178352505050506126ca565b505050565b600066038d7ea4c68000448585856040516020016125539493929190613de2565b6040516020818303038152906040528051906020012060001c6125769190613e4c565b90509392505050565b6001816000016000828254019250508190555050565b61262d82826040516024016125ab929190613e7d565b6040516020818303038152906040527f9710a9d0000000000000000000000000000000000000000000000000000000007bffffffffffffffffffffffffffffffffffffffffffffffffffffffff19166020820180517bffffffffffffffffffffffffffffffffffffffffffffffffffffffff83818316178352505050506126ca565b5050565b6126c7816040516024016126459190612c13565b6040516020818303038152906040527ff5b1bba9000000000000000000000000000000000000000000000000000000007bffffffffffffffffffffffffffffffffffffffffffffffffffffffff19166020820180517bffffffffffffffffffffffffffffffffffffffffffffffffffffffff83818316178352505050506126ca565b50565b60008151905060006a636f6e736f6c652e6c6f679050602083016000808483855afa5050505050565b6040518060e001604052806060815260200160608152602001600073ffffffffffffffffffffffffffffffffffffffff16815260200160008152602001600063ffffffff168152602001600063ffffffff168152602001606081525090565b6040518060400160405280606081526020016000600181111561277857612777612c7d565b5b81525090565b6040518060600160405280600073ffffffffffffffffffffffffffffffffffffffff168152602001600060018111156127ba576127b9612c7d565b5b8152602001600081525090565b6040518060600160405280600081526020016127e16126f3565b8152602001606081525090565b6040518060600160405280600081526020016128086126f3565b815260200161281561277e565b81525090565b600081519050919050565b600082825260208201905092915050565b6000819050602082019050919050565b600081519050919050565b600082825260208201905092915050565b60005b83811015612881578082015181840152602081019050612866565b83811115612890576000848401525b50505050565b6000601f19601f8301169050919050565b60006128b282612847565b6128bc8185612852565b93506128cc818560208601612863565b6128d581612896565b840191505092915050565b600073ffffffffffffffffffffffffffffffffffffffff82169050919050565b600061290b826128e0565b9050919050565b61291b81612900565b82525050565b6000819050919050565b61293481612921565b82525050565b600063ffffffff82169050919050565b6129538161293a565b82525050565b600060e083016000830151848203600086015261297682826128a7565b9150506020830151848203602086015261299082826128a7565b91505060408301516129a56040860182612912565b5060608301516129b8606086018261292b565b5060808301516129cb608086018261294a565b5060a08301516129de60a086018261294a565b5060c083015184820360c08601526129f682826128a7565b9150508091505092915050565b6000612a0f8383612959565b905092915050565b6000602082019050919050565b6000612a2f8261281b565b612a398185612826565b935083602082028501612a4b85612837565b8060005b85811015612a875784840389528151612a688582612a03565b9450612a7383612a17565b925060208a01995050600181019050612a4f565b50829750879550505050505092915050565b60006020820190508181036000830152612ab38184612a24565b905092915050565b600080fd5b600080fd5b600080fd5b600080fd5b600080fd5b60008083601f840112612aea57612ae9612ac5565b5b8235905067ffffffffffffffff811115612b0757612b06612aca565b5b602083019150836001820283011115612b2357612b22612acf565b5b9250929050565b60008060008060408587031215612b4457612b43612abb565b5b600085013567ffffffffffffffff811115612b6257612b61612ac0565b5b612b6e87828801612ad4565b9450945050602085013567ffffffffffffffff811115612b9157612b90612ac0565b5b612b9d87828801612ad4565b925092505092959194509250565b612bb481612921565b8114612bbf57600080fd5b50565b600081359050612bd181612bab565b92915050565b600060208284031215612bed57612bec612abb565b5b6000612bfb84828501612bc2565b91505092915050565b612c0d81612921565b82525050565b6000602082019050612c286000830184612c04565b92915050565b60008060408385031215612c4557612c44612abb565b5b6000612c5385828601612bc2565b9250506020612c6485828601612bc2565b9150509250929050565b612c7781612900565b82525050565b7f4e487b7100000000000000000000000000000000000000000000000000000000600052602160045260246000fd5b60028110612cbd57612cbc612c7d565b5b50565b6000819050612cce82612cac565b919050565b6000612cde82612cc0565b9050919050565b612cee81612cd3565b82525050565b6000606082019050612d096000830186612c6e565b612d166020830185612ce5565b612d236040830184612c04565b949350505050565b612d348161293a565b8114612d3f57600080fd5b50565b600081359050612d5181612d2b565b92915050565b600080600080600080600080600060c08a8c031215612d7957612d78612abb565b5b60008a013567ffffffffffffffff811115612d9757612d96612ac0565b5b612da38c828d01612ad4565b995099505060208a013567ffffffffffffffff811115612dc657612dc5612ac0565b5b612dd28c828d01612ad4565b97509750506040612de58c828d01612bc2565b9550506060612df68c828d01612d42565b9450506080612e078c828d01612d42565b93505060a08a013567ffffffffffffffff811115612e2857612e27612ac0565b5b612e348c828d01612ad4565b92509250509295985092959850929598565b600082825260208201905092915050565b6000612e6282612847565b612e6c8185612e46565b9350612e7c818560208601612863565b612e8581612896565b840191505092915050565b612e998161293a565b82525050565b600060e0820190508181036000830152612eb9818a612e57565b90508181036020830152612ecd8189612e57565b9050612edc6040830188612c6e565b612ee96060830187612c04565b612ef66080830186612e90565b612f0360a0830185612e90565b81810360c0830152612f158184612e57565b905098975050505050505050565b612f2c81612900565b8114612f3757600080fd5b50565b600081359050612f4981612f23565b92915050565b600060208284031215612f6557612f64612abb565b5b6000612f7384828501612f3a565b91505092915050565b60028110612f8d57612f8c612c7d565b5b50565b6000819050612f9e82612f7c565b919050565b6000612fae82612f90565b9050919050565b612fbe81612fa3565b82525050565b60006040820190508181036000830152612fde8185612e57565b9050612fed6020830184612fb5565b9392505050565b600081519050919050565b600082825260208201905092915050565b6000819050602082019050919050565b61302981612cd3565b82525050565b6060820160008201516130456000850182612912565b5060208201516130586020850182613020565b50604082015161306b604085018261292b565b50505050565b600061307d838361302f565b60608301905092915050565b6000602082019050919050565b60006130a182612ff4565b6130ab8185612fff565b93506130b683613010565b8060005b838110156130e75781516130ce8882613071565b97506130d983613089565b9250506001810190506130ba565b5085935050505092915050565b600060608301600083015161310c600086018261292b565b50602083015184820360208601526131248282612959565b9150506040830151848203604086015261313e8282613096565b9150508091505092915050565b6000602082019050818103600083015261316581846130f4565b905092915050565b600081519050919050565b600082825260208201905092915050565b6000819050602082019050919050565b600060a0830160008301516131b1600086018261292b565b50602083015184820360208601526131c98282612959565b91505060408301516131de604086018261302f565b508091505092915050565b60006131f58383613199565b905092915050565b6000602082019050919050565b60006132158261316d565b61321f8185613178565b93508360208202850161323185613189565b8060005b8581101561326d578484038952815161324e85826131e9565b9450613259836131fd565b925060208a01995050600181019050613235565b50829750879550505050505092915050565b60006020820190508181036000830152613299818461320a565b905092915050565b6000806000606084860312156132ba576132b9612abb565b5b60006132c886828701612bc2565b93505060206132d986828701612bc2565b92505060406132ea86828701612f3a565b9150509250925092565b7f4e487b7100000000000000000000000000000000000000000000000000000000600052604160045260246000fd5b7f4e487b7100000000000000000000000000000000000000000000000000000000600052603260045260246000fd5b7f4e487b7100000000000000000000000000000000000000000000000000000000600052602260045260246000fd5b6000600282049050600182168061339957607f821691505b6020821081036133ac576133ab613352565b5b50919050565b7f4e487b7100000000000000000000000000000000000000000000000000000000600052601160045260246000fd5b60006133ec82612921565b91507fffffffffffffffffffffffffffffffffffffffffffffffffffffffffffffffff820361341e5761341d6133b2565b5b600182019050919050565b600081905092915050565b60008190508160005260206000209050919050565b6000815461345681613381565b6134608186613429565b9450600182166000811461347b5760018114613490576134c3565b60ff19831686528115158202860193506134c3565b61349985613434565b60005b838110156134bb5781548189015260018201915060208101905061349c565b838801955050505b50505092915050565b60006134d88284613449565b915081905092915050565b7f5573657220616c72656164792065786973747300000000000000000000000000600082015250565b6000613519601383612e46565b9150613524826134e3565b602082019050919050565b600060208201905081810360008301526135488161350c565b9050919050565b82818337600083830152505050565b600061356a8385613429565b935061357783858461354f565b82840190509392505050565b600061359082848661355e565b91508190509392505050565b7f496e76616c696420757365722074797065000000000000000000000000000000600082015250565b60006135d2601183612e46565b91506135dd8261359c565b602082019050919050565b60006020820190508181036000830152613601816135c5565b9050919050565b60008190508160005260206000209050919050565b60006020601f8301049050919050565b600082821b905092915050565b60006008830261366a7fffffffffffffffffffffffffffffffffffffffffffffffffffffffffffffffff8261362d565b613674868361362d565b95508019841693508086168417925050509392505050565b6000819050919050565b60006136b16136ac6136a784612921565b61368c565b612921565b9050919050565b6000819050919050565b6136cb83613696565b6136df6136d7826136b8565b84845461363a565b825550505050565b600090565b6136f46136e7565b6136ff8184846136c2565b505050565b5b81811015613723576137186000826136ec565b600181019050613705565b5050565b601f8211156137685761373981613608565b6137428461361d565b81016020851015613751578190505b61376561375d8561361d565b830182613704565b50505b505050565b600082821c905092915050565b600061378b6000198460080261376d565b1980831691505092915050565b60006137a4838361377a565b9150826002028217905092915050565b6137bd82612847565b67ffffffffffffffff8111156137d6576137d56132f4565b5b6137e08254613381565b6137eb828285613727565b600060209050601f83116001811461381e576000841561380c578287015190505b6138168582613798565b86555061387e565b601f19841661382c86613608565b60005b828110156138545784890151825560018201915060208501945060208101905061382f565b86831015613871578489015161386d601f89168261377a565b8355505b6001600288020188555050505b505050505050565b7f496e76616c696420696e70757473000000000000000000000000000000000000600082015250565b60006138bc600e83612e46565b91506138c782613886565b602082019050919050565b600060208201905081810360008301526138eb816138af565b9050919050565b7f4f6e6c79206d616e7566616374757265722063616e206164642070726f64756360008201527f7473000000000000000000000000000000000000000000000000000000000000602082015250565b600061394e602283612e46565b9150613959826138f2565b604082019050919050565b6000602082019050818103600083015261397d81613941565b9050919050565b7f4475706c69636174652070726f647563742069642c2074727920616761696e00600082015250565b60006139ba601f83612e46565b91506139c582613984565b602082019050919050565b600060208201905081810360008301526139e9816139ad565b9050919050565b7f4e6f20737563682070726f647563740000000000000000000000000000000000600082015250565b6000613a26600f83612e46565b9150613a31826139f0565b602082019050919050565b60006020820190508181036000830152613a5581613a19565b9050919050565b6000613a6782612921565b9150613a7283612921565b925082821015613a8557613a846133b2565b5b828203905092915050565b7f5468652070726f64756374206d757374206465706172742066726f6d2074686560008201527f2063757272656e7420686f6c6465720000000000000000000000000000000000602082015250565b6000613aec602f83612e46565b9150613af782613a90565b604082019050919050565b60006020820190508181036000830152613b1b81613adf565b9050919050565b7f5468652070726f647563742063616e6e6f74206172726976652066726f6d207460008201527f68652073616d652070726576696f757320686f6c646572000000000000000000602082015250565b6000613b7e603783612e46565b9150613b8982613b22565b604082019050919050565b60006020820190508181036000830152613bad81613b71565b9050919050565b6000819050919050565b6000613bc982613bb4565b91507f80000000000000000000000000000000000000000000000000000000000000008203613bfb57613bfa6133b2565b5b600182039050919050565b7f5468652070726f64756374206d757374206172726976652066726f6d2074686560008201527f2070726576696f757320686f6c64657200000000000000000000000000000000602082015250565b6000613c62603083612e46565b9150613c6d82613c06565b604082019050919050565b60006020820190508181036000830152613c9181613c55565b9050919050565b7f5468652070726f647563742063616e6e6f742064657061727420746f2074686560008201527f2073616d652070726576696f757320686f6c6465720000000000000000000000602082015250565b6000613cf4603583612e46565b9150613cff82613c98565b604082019050919050565b60006020820190508181036000830152613d2381613ce7565b9050919050565b60006020820190508181036000830152613d448184612e57565b905092915050565b60006060820190508181036000830152613d668186612e57565b9050613d756020830185612c04565b8181036040830152613d878184612e57565b9050949350505050565b6000819050919050565b613dac613da782612921565b613d91565b82525050565b600081905092915050565b6000613dc98385613db2565b9350613dd683858461354f565b82840190509392505050565b6000613dee8287613d9b565b602082019150613dfe8286613d9b565b602082019150613e0f828486613dbd565b915081905095945050505050565b7f4e487b7100000000000000000000000000000000000000000000000000000000600052601260045260246000fd5b6000613e5782612921565b9150613e6283612921565b925082613e7257613e71613e1d565b5b828206905092915050565b60006040820190508181036000830152613e978185612e57565b9050613ea66020830184612c04565b939250505056fe47657474696e6720616c6c2070726f64756374732066726f6d20636f6e7472616374a2646970667358221220a5c3e12df3f445267ff2968348be4399b4d650f3c647ac5d3495607660795cc764736f6c634300080f0033",
  "linkReferences": {},
  "deployedLinkReferences": {}
}