{
  "_format": "hh-sol-artifact-1",
  "contractName": "SupplyChain",
  "sourceName": "contracts/SupplyChain.sol",
  "abi": [
    {
      "inputs": [
        {
          "internalType": "uint256",
          "name": "productUId",
          "type": "uint256"
        },
        {
          "internalType": "uint256",
          "name": "time",
          "type": "uint256"
        }
      ],
      "name": "addArrival",
      "outputs": [],
      "stateMutability": "nonpayable",
      "type": "function"
    },
    {
      "inputs": [
        {
          "internalType": "uint256",
          "name": "productUId",
          "type": "uint256"
        },
        {
          "internalType": "uint256",
          "name": "time",
          "type": "uint256"
        },
        {
          "internalType": "address",
          "name": "nextHolder",
          "type": "address"
        }
      ],
      "name": "addDeparture",
      "outputs": [],
      "stateMutability": "nonpayable",
      "type": "function"
    },
    {
      "inputs": [
        {
          "internalType": "string",
          "name": "name",
          "type": "string"
        },
        {
          "internalType": "string",
          "name": "pType",
          "type": "string"
        },
        {
          "internalType": "uint256",
          "name": "manTime",
          "type": "uint256"
        },
        {
          "internalType": "uint32",
          "name": "quantity",
          "type": "uint32"
        },
        {
          "internalType": "uint32",
          "name": "price",
          "type": "uint32"
        },
        {
          "internalType": "string",
          "name": "currency",
          "type": "string"
        }
      ],
      "name": "addProduct",
      "outputs": [],
      "stateMutability": "nonpayable",
      "type": "function"
    },
    {
      "inputs": [
        {
          "internalType": "string",
          "name": "name",
          "type": "string"
        },
        {
          "internalType": "string",
          "name": "uType",
          "type": "string"
        }
      ],
      "name": "addUser",
      "outputs": [],
      "stateMutability": "nonpayable",
      "type": "function"
    },
    {
      "inputs": [],
      "name": "getAllProducts",
      "outputs": [
        {
          "components": [
            {
              "internalType": "uint256",
              "name": "uId",
              "type": "uint256"
            },
            {
              "internalType": "string",
              "name": "name",
              "type": "string"
            },
            {
              "internalType": "string",
              "name": "pType",
              "type": "string"
            },
            {
              "internalType": "address",
              "name": "manufacturer",
              "type": "address"
            },
            {
              "internalType": "address[]",
              "name": "holders",
              "type": "address[]"
            },
            {
              "internalType": "uint256",
              "name": "manTime",
              "type": "uint256"
            },
            {
              "internalType": "uint32",
              "name": "quantity",
              "type": "uint32"
            },
            {
              "internalType": "uint32",
              "name": "price",
              "type": "uint32"
            },
            {
              "internalType": "string",
              "name": "currency",
              "type": "string"
            }
          ],
          "internalType": "struct SupplyChain.Product[]",
          "name": "",
          "type": "tuple[]"
        }
      ],
      "stateMutability": "view",
      "type": "function"
    },
    {
      "inputs": [
        {
          "internalType": "uint256",
          "name": "count",
          "type": "uint256"
        }
      ],
      "name": "getAllTransits",
      "outputs": [
        {
          "components": [
            {
              "internalType": "uint256",
              "name": "uId",
              "type": "uint256"
            },
            {
              "components": [
                {
                  "internalType": "uint256",
                  "name": "uId",
                  "type": "uint256"
                },
                {
                  "internalType": "string",
                  "name": "name",
                  "type": "string"
                },
                {
                  "internalType": "string",
                  "name": "pType",
                  "type": "string"
                },
                {
                  "internalType": "address",
                  "name": "manufacturer",
                  "type": "address"
                },
                {
                  "internalType": "address[]",
                  "name": "holders",
                  "type": "address[]"
                },
                {
                  "internalType": "uint256",
                  "name": "manTime",
                  "type": "uint256"
                },
                {
                  "internalType": "uint32",
                  "name": "quantity",
                  "type": "uint32"
                },
                {
                  "internalType": "uint32",
                  "name": "price",
                  "type": "uint32"
                },
                {
                  "internalType": "string",
                  "name": "currency",
                  "type": "string"
                }
              ],
              "internalType": "struct SupplyChain.Product",
              "name": "product",
              "type": "tuple"
            },
            {
              "components": [
                {
                  "internalType": "address",
                  "name": "holder",
                  "type": "address"
                },
                {
                  "internalType": "enum SupplyChain.TransitTypes",
                  "name": "transitType",
                  "type": "uint8"
                },
                {
                  "internalType": "uint256",
                  "name": "time",
                  "type": "uint256"
                }
              ],
              "internalType": "struct SupplyChain.Transit",
              "name": "transit",
              "type": "tuple"
            }
          ],
          "internalType": "struct SupplyChain.ViewRecentTransit[]",
          "name": "",
          "type": "tuple[]"
        }
      ],
      "stateMutability": "view",
      "type": "function"
    },
    {
      "inputs": [
        {
          "internalType": "uint256",
          "name": "productUId",
          "type": "uint256"
        }
      ],
      "name": "getProduct",
      "outputs": [
        {
          "components": [
            {
              "internalType": "uint256",
              "name": "uId",
              "type": "uint256"
            },
            {
              "components": [
                {
                  "internalType": "uint256",
                  "name": "uId",
                  "type": "uint256"
                },
                {
                  "internalType": "string",
                  "name": "name",
                  "type": "string"
                },
                {
                  "internalType": "string",
                  "name": "pType",
                  "type": "string"
                },
                {
                  "internalType": "address",
                  "name": "manufacturer",
                  "type": "address"
                },
                {
                  "internalType": "address[]",
                  "name": "holders",
                  "type": "address[]"
                },
                {
                  "internalType": "uint256",
                  "name": "manTime",
                  "type": "uint256"
                },
                {
                  "internalType": "uint32",
                  "name": "quantity",
                  "type": "uint32"
                },
                {
                  "internalType": "uint32",
                  "name": "price",
                  "type": "uint32"
                },
                {
                  "internalType": "string",
                  "name": "currency",
                  "type": "string"
                }
              ],
              "internalType": "struct SupplyChain.Product",
              "name": "product",
              "type": "tuple"
            },
            {
              "components": [
                {
                  "internalType": "address",
                  "name": "holder",
                  "type": "address"
                },
                {
                  "internalType": "enum SupplyChain.TransitTypes",
                  "name": "transitType",
                  "type": "uint8"
                },
                {
                  "internalType": "uint256",
                  "name": "time",
                  "type": "uint256"
                }
              ],
              "internalType": "struct SupplyChain.Transit[]",
              "name": "allTransits",
              "type": "tuple[]"
            }
          ],
          "internalType": "struct SupplyChain.ViewProduct",
          "name": "",
          "type": "tuple"
        }
      ],
      "stateMutability": "view",
      "type": "function"
    },
    {
      "inputs": [
        {
          "internalType": "uint256",
          "name": "",
          "type": "uint256"
        }
      ],
      "name": "productUIds",
      "outputs": [
        {
          "internalType": "uint256",
          "name": "",
          "type": "uint256"
        }
      ],
      "stateMutability": "view",
      "type": "function"
    },
    {
      "inputs": [
        {
          "internalType": "uint256",
          "name": "",
          "type": "uint256"
        }
      ],
      "name": "products",
      "outputs": [
        {
          "internalType": "uint256",
          "name": "uId",
          "type": "uint256"
        },
        {
          "internalType": "string",
          "name": "name",
          "type": "string"
        },
        {
          "internalType": "string",
          "name": "pType",
          "type": "string"
        },
        {
          "internalType": "address",
          "name": "manufacturer",
          "type": "address"
        },
        {
          "internalType": "uint256",
          "name": "manTime",
          "type": "uint256"
        },
        {
          "internalType": "uint32",
          "name": "quantity",
          "type": "uint32"
        },
        {
          "internalType": "uint32",
          "name": "price",
          "type": "uint32"
        },
        {
          "internalType": "string",
          "name": "currency",
          "type": "string"
        }
      ],
      "stateMutability": "view",
      "type": "function"
    },
    {
      "inputs": [
        {
          "internalType": "uint256",
          "name": "",
          "type": "uint256"
        },
        {
          "internalType": "uint256",
          "name": "",
          "type": "uint256"
        }
      ],
      "name": "transits",
      "outputs": [
        {
          "internalType": "address",
          "name": "holder",
          "type": "address"
        },
        {
          "internalType": "enum SupplyChain.TransitTypes",
          "name": "transitType",
          "type": "uint8"
        },
        {
          "internalType": "uint256",
          "name": "time",
          "type": "uint256"
        }
      ],
      "stateMutability": "view",
      "type": "function"
    },
    {
      "inputs": [
        {
          "internalType": "address",
          "name": "",
          "type": "address"
        }
      ],
      "name": "users",
      "outputs": [
        {
          "internalType": "string",
          "name": "name",
          "type": "string"
        },
        {
          "internalType": "enum SupplyChain.UserTypes",
          "name": "uType",
          "type": "uint8"
        }
      ],
      "stateMutability": "view",
      "type": "function"
    }
  ],
  "bytecode": "0x608060405234801561001057600080fd5b506140af806100206000396000f3fe608060405234801561001057600080fd5b50600436106100a95760003560e01c80637acc0b20116100715780637acc0b2014610166578063a87430ba1461019d578063b9db15b4146101ce578063d8049771146101fe578063ea59a3d71461021a578063fcadde3a1461024a576100a9565b806302ee3a52146100ae578063079eaf34146100cc57806325a1b85e146100e85780632e8d18cf146101185780636768e1ac1461014a575b600080fd5b6100b6610266565b6040516100c39190612c81565b60405180910390f35b6100e660048036038101906100e19190612d12565b61064d565b005b61010260048036038101906100fd9190612dbf565b610957565b60405161010f9190612dfb565b60405180910390f35b610132600480360381019061012d9190612e16565b61097b565b60405161014193929190612edc565b60405180910390f35b610164600480360381019061015f9190612f3f565b6109ef565b005b610180600480360381019061017b9190612dbf565b6110fb565b604051610194989796959493929190613087565b60405180910390f35b6101b760048036038101906101b29190613146565b61131b565b6040516101c59291906131bb565b60405180910390f35b6101e860048036038101906101e39190612dbf565b6113d4565b6040516101f59190613342565b60405180910390f35b61021860048036038101906102139190612e16565b6118d5565b005b610234600480360381019061022f9190612dbf565b611c20565b6040516102419190613476565b60405180910390f35b610264600480360381019061025f9190613498565b612255565b005b606060006102746005612681565b67ffffffffffffffff81111561028d5761028c6134eb565b5b6040519080825280602002602001820160405280156102c657816020015b6102b36126f2565b8152602001906001900390816102ab5790505b50905060005b6102d66005612681565b8110156106455760016000600383815481106102f5576102f461351a565b5b90600052602060002001548152602001908152602001600020604051806101200160405290816000820154815260200160018201805461033490613578565b80601f016020809104026020016040519081016040528092919081815260200182805461036090613578565b80156103ad5780601f10610382576101008083540402835291602001916103ad565b820191906000526020600020905b81548152906001019060200180831161039057829003601f168201915b505050505081526020016002820180546103c690613578565b80601f01602080910402602001604051908101604052809291908181526020018280546103f290613578565b801561043f5780601f106104145761010080835404028352916020019161043f565b820191906000526020600020905b81548152906001019060200180831161042257829003601f168201915b505050505081526020016003820160009054906101000a900473ffffffffffffffffffffffffffffffffffffffff1673ffffffffffffffffffffffffffffffffffffffff1673ffffffffffffffffffffffffffffffffffffffff1681526020016004820180548060200260200160405190810160405280929190818152602001828054801561052357602002820191906000526020600020905b8160009054906101000a900473ffffffffffffffffffffffffffffffffffffffff1673ffffffffffffffffffffffffffffffffffffffff16815260200190600101908083116104d9575b50505050508152602001600582015481526020016006820160009054906101000a900463ffffffff1663ffffffff1663ffffffff1681526020016006820160049054906101000a900463ffffffff1663ffffffff1663ffffffff16815260200160078201805461059290613578565b80601f01602080910402602001604051908101604052809291908181526020018280546105be90613578565b801561060b5780601f106105e05761010080835404028352916020019161060b565b820191906000526020600020905b8154815290600101906020018083116105ee57829003601f168201915b5050505050815250508282815181106106275761062661351a565b5b6020026020010181905250808061063d906135d8565b9150506102cc565b508091505090565b60405180602001604052806000815250805190602001206000803373ffffffffffffffffffffffffffffffffffffffff1673ffffffffffffffffffffffffffffffffffffffff1681526020019081526020016000206000016040516106b291906136c3565b6040518091039020146106fa576040517f08c379a00000000000000000000000000000000000000000000000000000000081526004016106f190613726565b60405180910390fd5b610702612760565b84848080601f016020809104026020016040519081016040528093929190818152602001838380828437600081840152601f19601f8201169050808301925050505050505081600001819052506040518060400160405280600c81526020017f6d616e756661637475726572000000000000000000000000000000000000000081525080519060200120838360405161079c92919061377a565b6040518091039020036107df576000816020019060018111156107c2576107c1612e65565b5b908160018111156107d6576107d5612e65565b5b815250506108ab565b6040518060400160405280600881526020017f737570706c69657200000000000000000000000000000000000000000000000081525080519060200120838360405161082c92919061377a565b60405180910390200361086f5760018160200190600181111561085257610851612e65565b5b9081600181111561086657610865612e65565b5b815250506108aa565b6040517f08c379a00000000000000000000000000000000000000000000000000000000081526004016108a1906137df565b60405180910390fd5b5b806000803373ffffffffffffffffffffffffffffffffffffffff1673ffffffffffffffffffffffffffffffffffffffff16815260200190815260200160002060008201518160000190816108ff91906139ab565b5060208201518160010160006101000a81548160ff0219169083600181111561092b5761092a612e65565b5b0217905550604082015181600201908051906020019061094c929190612793565b509050505050505050565b6003818154811061096757600080fd5b906000526020600020016000915090505481565b6002602052816000526040600020818154811061099757600080fd5b9060005260206000209060020201600091509150508060000160009054906101000a900473ffffffffffffffffffffffffffffffffffffffff16908060000160149054906101000a900460ff16908060010154905083565b60008363ffffffff1614158015610a0d575060008463ffffffff1614155b610a4c576040517f08c379a0000000000000000000000000000000000000000000000000000000008152600401610a4390613ac9565b60405180910390fd5b60405180602001604052806000815250805190602001206000803373ffffffffffffffffffffffffffffffffffffffff1673ffffffffffffffffffffffffffffffffffffffff168152602001908152602001600020600001604051610ab191906136c3565b604051809103902003610af9576040517f08c379a0000000000000000000000000000000000000000000000000000000008152600401610af090613b35565b60405180910390fd5b60006001811115610b0d57610b0c612e65565b5b6000803373ffffffffffffffffffffffffffffffffffffffff1673ffffffffffffffffffffffffffffffffffffffff16815260200190815260200160002060010160009054906101000a900460ff166001811115610b6e57610b6d612e65565b5b14610bae576040517f08c379a0000000000000000000000000000000000000000000000000000000008152600401610ba590613bc7565b60405180910390fd5b610bb66126f2565b89898080601f016020809104026020016040519081016040528093929190818152602001838380828437600081840152601f19601f82011690508083019250505050505050816020018190525087878080601f016020809104026020016040519081016040528093929190818152602001838380828437600081840152601f19601f82011690508083019250505050505050816040018190525033816060019073ffffffffffffffffffffffffffffffffffffffff16908173ffffffffffffffffffffffffffffffffffffffff1681525050858160a0018181525050848160c0019063ffffffff16908163ffffffff1681525050838160e0019063ffffffff16908163ffffffff168152505082828080601f016020809104026020016040519081016040528093929190818152602001838380828437600081840152601f19601f820116905080830192505050505050508161010001819052506000610d1d878c8c61268f565b9050600073ffffffffffffffffffffffffffffffffffffffff166001600083815260200190815260200160002060030160009054906101000a900473ffffffffffffffffffffffffffffffffffffffff1673ffffffffffffffffffffffffffffffffffffffff1614610dc4576040517f08c379a0000000000000000000000000000000000000000000000000000000008152600401610dbb90613c33565b60405180910390fd5b808260000181815250508160016000838152602001908152602001600020600082015181600001556020820151816001019081610e0191906139ab565b506040820151816002019081610e1791906139ab565b5060608201518160030160006101000a81548173ffffffffffffffffffffffffffffffffffffffff021916908373ffffffffffffffffffffffffffffffffffffffff1602179055506080820151816004019080519060200190610e7b9291906127e0565b5060a0820151816005015560c08201518160060160006101000a81548163ffffffff021916908363ffffffff16021790555060e08201518160060160046101000a81548163ffffffff021916908363ffffffff160217905550610100820151816007019081610eea91906139ab565b5090505060038190806001815401808255809150506001900390600052602060002001600090919091909150556000803373ffffffffffffffffffffffffffffffffffffffff1673ffffffffffffffffffffffffffffffffffffffff168152602001908152602001600020600201819080600181540180825580915050600190039060005260206000200160009091909190915055610f8960056126dc565b610f9161286a565b33816000019073ffffffffffffffffffffffffffffffffffffffff16908173ffffffffffffffffffffffffffffffffffffffff1681525050600081602001906001811115610fe257610fe1612e65565b5b90816001811115610ff657610ff5612e65565b5b81525050878160400181815250506002600083815260200190815260200160002081908060018154018082558091505060019003906000526020600020906002020160009091909190915060008201518160000160006101000a81548173ffffffffffffffffffffffffffffffffffffffff021916908373ffffffffffffffffffffffffffffffffffffffff16021790555060208201518160000160146101000a81548160ff021916908360018111156110b3576110b2612e65565b5b02179055506040820151816001015550506004829080600181540180825580915050600190039060005260206000200160009091909190915055505050505050505050505050565b600160205280600052604060002060009150905080600001549080600101805461112490613578565b80601f016020809104026020016040519081016040528092919081815260200182805461115090613578565b801561119d5780601f106111725761010080835404028352916020019161119d565b820191906000526020600020905b81548152906001019060200180831161118057829003601f168201915b5050505050908060020180546111b290613578565b80601f01602080910402602001604051908101604052809291908181526020018280546111de90613578565b801561122b5780601f106112005761010080835404028352916020019161122b565b820191906000526020600020905b81548152906001019060200180831161120e57829003601f168201915b5050505050908060030160009054906101000a900473ffffffffffffffffffffffffffffffffffffffff16908060050154908060060160009054906101000a900463ffffffff16908060060160049054906101000a900463ffffffff169080600701805461129890613578565b80601f01602080910402602001604051908101604052809291908181526020018280546112c490613578565b80156113115780601f106112e657610100808354040283529160200191611311565b820191906000526020600020905b8154815290600101906020018083116112f457829003601f168201915b5050505050905088565b600060205280600052604060002060009150905080600001805461133e90613578565b80601f016020809104026020016040519081016040528092919081815260200182805461136a90613578565b80156113b75780601f1061138c576101008083540402835291602001916113b7565b820191906000526020600020905b81548152906001019060200180831161139a57829003601f168201915b5050505050908060010160009054906101000a900460ff16905082565b6113dc6128b3565b600073ffffffffffffffffffffffffffffffffffffffff166001600084815260200190815260200160002060030160009054906101000a900473ffffffffffffffffffffffffffffffffffffffff1673ffffffffffffffffffffffffffffffffffffffff1603611481576040517f08c379a000000000000000000000000000000000000000000000000000000000815260040161147890613c9f565b60405180910390fd5b60006001600084815260200190815260200160002060405180610120016040529081600082015481526020016001820180546114bc90613578565b80601f01602080910402602001604051908101604052809291908181526020018280546114e890613578565b80156115355780601f1061150a57610100808354040283529160200191611535565b820191906000526020600020905b81548152906001019060200180831161151857829003601f168201915b5050505050815260200160028201805461154e90613578565b80601f016020809104026020016040519081016040528092919081815260200182805461157a90613578565b80156115c75780601f1061159c576101008083540402835291602001916115c7565b820191906000526020600020905b8154815290600101906020018083116115aa57829003601f168201915b505050505081526020016003820160009054906101000a900473ffffffffffffffffffffffffffffffffffffffff1673ffffffffffffffffffffffffffffffffffffffff1673ffffffffffffffffffffffffffffffffffffffff168152602001600482018054806020026020016040519081016040528092919081815260200182805480156116ab57602002820191906000526020600020905b8160009054906101000a900473ffffffffffffffffffffffffffffffffffffffff1673ffffffffffffffffffffffffffffffffffffffff1681526020019060010190808311611661575b50505050508152602001600582015481526020016006820160009054906101000a900463ffffffff1663ffffffff1663ffffffff1681526020016006820160049054906101000a900463ffffffff1663ffffffff1663ffffffff16815260200160078201805461171a90613578565b80601f016020809104026020016040519081016040528092919081815260200182805461174690613578565b80156117935780601f1061176857610100808354040283529160200191611793565b820191906000526020600020905b81548152906001019060200180831161177657829003601f168201915b5050505050815250509050600060026000858152602001908152602001600020805480602002602001604051908101604052809291908181526020016000905b828210156118a057838290600052602060002090600202016040518060600160405290816000820160009054906101000a900473ffffffffffffffffffffffffffffffffffffffff1673ffffffffffffffffffffffffffffffffffffffff1673ffffffffffffffffffffffffffffffffffffffff1681526020016000820160149054906101000a900460ff16600181111561187157611870612e65565b5b600181111561188357611882612e65565b5b8152602001600182015481525050815260200190600101906117d3565b5050505090506118ae6128b3565b84816000018181525050828160200181905250818160400181905250809350505050919050565b6118dd61286a565b60026000848152602001908152602001600020600160026000868152602001908152602001600020805490506119139190613cbf565b815481106119245761192361351a565b5b90600052602060002090600202016040518060600160405290816000820160009054906101000a900473ffffffffffffffffffffffffffffffffffffffff1673ffffffffffffffffffffffffffffffffffffffff1673ffffffffffffffffffffffffffffffffffffffff1681526020016000820160149054906101000a900460ff1660018111156119b8576119b7612e65565b5b60018111156119ca576119c9612e65565b5b815260200160018201548152505090506001808111156119ed576119ec612e65565b5b81602001516001811115611a0457611a03612e65565b5b14611a44576040517f08c379a0000000000000000000000000000000000000000000000000000000008152600401611a3b90613d65565b60405180910390fd5b3373ffffffffffffffffffffffffffffffffffffffff16816000015173ffffffffffffffffffffffffffffffffffffffff1614611ab6576040517f08c379a0000000000000000000000000000000000000000000000000000000008152600401611aad90613df7565b60405180910390fd5b611abe61286a565b33816000019073ffffffffffffffffffffffffffffffffffffffff16908173ffffffffffffffffffffffffffffffffffffffff168152505082816040018181525050600081602001906001811115611b1957611b18612e65565b5b90816001811115611b2d57611b2c612e65565b5b815250506002600085815260200190815260200160002081908060018154018082558091505060019003906000526020600020906002020160009091909190915060008201518160000160006101000a81548173ffffffffffffffffffffffffffffffffffffffff021916908373ffffffffffffffffffffffffffffffffffffffff16021790555060208201518160000160146101000a81548160ff02191690836001811115611be057611bdf612e65565b5b0217905550604082015181600101555050600484908060018154018082558091505060019003906000526020600020016000909190919091505550505050565b6060600480549050821115611c385760048054905091505b60008267ffffffffffffffff811115611c5457611c536134eb565b5b604051908082528060200260200182016040528015611c8d57816020015b611c7a6128da565b815260200190600190039081611c725790505b50905060008367ffffffffffffffff811115611cac57611cab6134eb565b5b604051908082528060200260200182016040528015611cda5781602001602082028036833780820191505090505b5090506000806001600480549050611cf29190613cbf565b90505b85600480549050611d069190613cbf565b811261224957600060048281548110611d2257611d2161351a565b5b906000526020600020015490506000805b84811015611d7e5782868281518110611d4f57611d4e61351a565b5b602002602001015103611d6b578180611d67906135d8565b9250505b8080611d76906135d8565b915050611d33565b5081868581518110611d9357611d9261351a565b5b60200260200101516000018181525050600160008381526020019081526020016000206040518061012001604052908160008201548152602001600182018054611ddc90613578565b80601f0160208091040260200160405190810160405280929190818152602001828054611e0890613578565b8015611e555780601f10611e2a57610100808354040283529160200191611e55565b820191906000526020600020905b815481529060010190602001808311611e3857829003601f168201915b50505050508152602001600282018054611e6e90613578565b80601f0160208091040260200160405190810160405280929190818152602001828054611e9a90613578565b8015611ee75780601f10611ebc57610100808354040283529160200191611ee7565b820191906000526020600020905b815481529060010190602001808311611eca57829003601f168201915b505050505081526020016003820160009054906101000a900473ffffffffffffffffffffffffffffffffffffffff1673ffffffffffffffffffffffffffffffffffffffff1673ffffffffffffffffffffffffffffffffffffffff16815260200160048201805480602002602001604051908101604052809291908181526020018280548015611fcb57602002820191906000526020600020905b8160009054906101000a900473ffffffffffffffffffffffffffffffffffffffff1673ffffffffffffffffffffffffffffffffffffffff1681526020019060010190808311611f81575b50505050508152602001600582015481526020016006820160009054906101000a900463ffffffff1663ffffffff1663ffffffff1681526020016006820160049054906101000a900463ffffffff1663ffffffff1663ffffffff16815260200160078201805461203a90613578565b80601f016020809104026020016040519081016040528092919081815260200182805461206690613578565b80156120b35780601f10612088576101008083540402835291602001916120b3565b820191906000526020600020905b81548152906001019060200180831161209657829003601f168201915b5050505050815250508685815181106120cf576120ce61351a565b5b6020026020010151602001819052506002600083815260200190815260200160002081600160026000868152602001908152602001600020805490506121159190613cbf565b61211f9190613cbf565b815481106121305761212f61351a565b5b90600052602060002090600202016040518060600160405290816000820160009054906101000a900473ffffffffffffffffffffffffffffffffffffffff1673ffffffffffffffffffffffffffffffffffffffff1673ffffffffffffffffffffffffffffffffffffffff1681526020016000820160149054906101000a900460ff1660018111156121c4576121c3612e65565b5b60018111156121d6576121d5612e65565b5b81526020016001820154815250508685815181106121f7576121f661351a565b5b6020026020010151604001819052508185858151811061221a5761221961351a565b5b6020026020010181815250508380612231906135d8565b9450505050808061224190613e21565b915050611cf5565b50829350505050919050565b61225d61286a565b60026000858152602001908152602001600020600160026000878152602001908152602001600020805490506122939190613cbf565b815481106122a4576122a361351a565b5b90600052602060002090600202016040518060600160405290816000820160009054906101000a900473ffffffffffffffffffffffffffffffffffffffff1673ffffffffffffffffffffffffffffffffffffffff1673ffffffffffffffffffffffffffffffffffffffff1681526020016000820160149054906101000a900460ff16600181111561233857612337612e65565b5b600181111561234a57612349612e65565b5b815260200160018201548152505090506000600181111561236e5761236d612e65565b5b8160200151600181111561238557612384612e65565b5b146123c5576040517f08c379a00000000000000000000000000000000000000000000000000000000081526004016123bc90613edb565b60405180910390fd5b8173ffffffffffffffffffffffffffffffffffffffff16816000015173ffffffffffffffffffffffffffffffffffffffff1603612437576040517f08c379a000000000000000000000000000000000000000000000000000000000815260040161242e90613f6d565b60405180910390fd5b61243f61286a565b82816000019073ffffffffffffffffffffffffffffffffffffffff16908173ffffffffffffffffffffffffffffffffffffffff16815250508381604001818152505060018160200190600181111561249a57612499612e65565b5b908160018111156124ae576124ad612e65565b5b815250506002600086815260200190815260200160002081908060018154018082558091505060019003906000526020600020906002020160009091909190915060008201518160000160006101000a81548173ffffffffffffffffffffffffffffffffffffffff021916908373ffffffffffffffffffffffffffffffffffffffff16021790555060208201518160000160146101000a81548160ff0219169083600181111561256157612560612e65565b5b021790555060408201518160010155505060048590806001815401808255809150506001900390600052602060002001600090919091909150556000808473ffffffffffffffffffffffffffffffffffffffff1673ffffffffffffffffffffffffffffffffffffffff16815260200190815260200160002060020185908060018154018082558091505060019003906000526020600020016000909190919091505560016000868152602001908152602001600020600401839080600181540180825580915050600190039060005260206000200160009091909190916101000a81548173ffffffffffffffffffffffffffffffffffffffff021916908373ffffffffffffffffffffffffffffffffffffffff1602179055505050505050565b600081600001549050919050565b600066038d7ea4c68000448585856040516020016126b09493929190613fde565b6040516020818303038152906040528051906020012060001c6126d39190614048565b90509392505050565b6001816000016000828254019250508190555050565b604051806101200160405280600081526020016060815260200160608152602001600073ffffffffffffffffffffffffffffffffffffffff1681526020016060815260200160008152602001600063ffffffff168152602001600063ffffffff168152602001606081525090565b6040518060600160405280606081526020016000600181111561278657612785612e65565b5b8152602001606081525090565b8280548282559060005260206000209081019282156127cf579160200282015b828111156127ce5782518255916020019190600101906127b3565b5b5090506127dc9190612907565b5090565b828054828255906000526020600020908101928215612859579160200282015b828111156128585782518260006101000a81548173ffffffffffffffffffffffffffffffffffffffff021916908373ffffffffffffffffffffffffffffffffffffffff16021790555091602001919060010190612800565b5b5090506128669190612907565b5090565b6040518060600160405280600073ffffffffffffffffffffffffffffffffffffffff168152602001600060018111156128a6576128a5612e65565b5b8152602001600081525090565b6040518060600160405280600081526020016128cd6126f2565b8152602001606081525090565b6040518060600160405280600081526020016128f46126f2565b815260200161290161286a565b81525090565b5b80821115612920576000816000905550600101612908565b5090565b600081519050919050565b600082825260208201905092915050565b6000819050602082019050919050565b6000819050919050565b61296381612950565b82525050565b600081519050919050565b600082825260208201905092915050565b60005b838110156129a3578082015181840152602081019050612988565b838111156129b2576000848401525b50505050565b6000601f19601f8301169050919050565b60006129d482612969565b6129de8185612974565b93506129ee818560208601612985565b6129f7816129b8565b840191505092915050565b600073ffffffffffffffffffffffffffffffffffffffff82169050919050565b6000612a2d82612a02565b9050919050565b612a3d81612a22565b82525050565b600081519050919050565b600082825260208201905092915050565b6000819050602082019050919050565b6000612a7b8383612a34565b60208301905092915050565b6000602082019050919050565b6000612a9f82612a43565b612aa98185612a4e565b9350612ab483612a5f565b8060005b83811015612ae5578151612acc8882612a6f565b9750612ad783612a87565b925050600181019050612ab8565b5085935050505092915050565b600063ffffffff82169050919050565b612b0b81612af2565b82525050565b600061012083016000830151612b2a600086018261295a565b5060208301518482036020860152612b4282826129c9565b91505060408301518482036040860152612b5c82826129c9565b9150506060830151612b716060860182612a34565b5060808301518482036080860152612b898282612a94565b91505060a0830151612b9e60a086018261295a565b5060c0830151612bb160c0860182612b02565b5060e0830151612bc460e0860182612b02565b50610100830151848203610100860152612bde82826129c9565b9150508091505092915050565b6000612bf78383612b11565b905092915050565b6000602082019050919050565b6000612c1782612924565b612c21818561292f565b935083602082028501612c3385612940565b8060005b85811015612c6f5784840389528151612c508582612beb565b9450612c5b83612bff565b925060208a01995050600181019050612c37565b50829750879550505050505092915050565b60006020820190508181036000830152612c9b8184612c0c565b905092915050565b600080fd5b600080fd5b600080fd5b600080fd5b600080fd5b60008083601f840112612cd257612cd1612cad565b5b8235905067ffffffffffffffff811115612cef57612cee612cb2565b5b602083019150836001820283011115612d0b57612d0a612cb7565b5b9250929050565b60008060008060408587031215612d2c57612d2b612ca3565b5b600085013567ffffffffffffffff811115612d4a57612d49612ca8565b5b612d5687828801612cbc565b9450945050602085013567ffffffffffffffff811115612d7957612d78612ca8565b5b612d8587828801612cbc565b925092505092959194509250565b612d9c81612950565b8114612da757600080fd5b50565b600081359050612db981612d93565b92915050565b600060208284031215612dd557612dd4612ca3565b5b6000612de384828501612daa565b91505092915050565b612df581612950565b82525050565b6000602082019050612e106000830184612dec565b92915050565b60008060408385031215612e2d57612e2c612ca3565b5b6000612e3b85828601612daa565b9250506020612e4c85828601612daa565b9150509250929050565b612e5f81612a22565b82525050565b7f4e487b7100000000000000000000000000000000000000000000000000000000600052602160045260246000fd5b60028110612ea557612ea4612e65565b5b50565b6000819050612eb682612e94565b919050565b6000612ec682612ea8565b9050919050565b612ed681612ebb565b82525050565b6000606082019050612ef16000830186612e56565b612efe6020830185612ecd565b612f0b6040830184612dec565b949350505050565b612f1c81612af2565b8114612f2757600080fd5b50565b600081359050612f3981612f13565b92915050565b600080600080600080600080600060c08a8c031215612f6157612f60612ca3565b5b60008a013567ffffffffffffffff811115612f7f57612f7e612ca8565b5b612f8b8c828d01612cbc565b995099505060208a013567ffffffffffffffff811115612fae57612fad612ca8565b5b612fba8c828d01612cbc565b97509750506040612fcd8c828d01612daa565b9550506060612fde8c828d01612f2a565b9450506080612fef8c828d01612f2a565b93505060a08a013567ffffffffffffffff8111156130105761300f612ca8565b5b61301c8c828d01612cbc565b92509250509295985092959850929598565b600082825260208201905092915050565b600061304a82612969565b613054818561302e565b9350613064818560208601612985565b61306d816129b8565b840191505092915050565b61308181612af2565b82525050565b60006101008201905061309d600083018b612dec565b81810360208301526130af818a61303f565b905081810360408301526130c3818961303f565b90506130d26060830188612e56565b6130df6080830187612dec565b6130ec60a0830186613078565b6130f960c0830185613078565b81810360e083015261310b818461303f565b90509998505050505050505050565b61312381612a22565b811461312e57600080fd5b50565b6000813590506131408161311a565b92915050565b60006020828403121561315c5761315b612ca3565b5b600061316a84828501613131565b91505092915050565b6002811061318457613183612e65565b5b50565b600081905061319582613173565b919050565b60006131a582613187565b9050919050565b6131b58161319a565b82525050565b600060408201905081810360008301526131d5818561303f565b90506131e460208301846131ac565b9392505050565b600081519050919050565b600082825260208201905092915050565b6000819050602082019050919050565b61322081612ebb565b82525050565b60608201600082015161323c6000850182612a34565b50602082015161324f6020850182613217565b506040820151613262604085018261295a565b50505050565b60006132748383613226565b60608301905092915050565b6000602082019050919050565b6000613298826131eb565b6132a281856131f6565b93506132ad83613207565b8060005b838110156132de5781516132c58882613268565b97506132d083613280565b9250506001810190506132b1565b5085935050505092915050565b6000606083016000830151613303600086018261295a565b506020830151848203602086015261331b8282612b11565b91505060408301518482036040860152613335828261328d565b9150508091505092915050565b6000602082019050818103600083015261335c81846132eb565b905092915050565b600081519050919050565b600082825260208201905092915050565b6000819050602082019050919050565b600060a0830160008301516133a8600086018261295a565b50602083015184820360208601526133c08282612b11565b91505060408301516133d56040860182613226565b508091505092915050565b60006133ec8383613390565b905092915050565b6000602082019050919050565b600061340c82613364565b613416818561336f565b93508360208202850161342885613380565b8060005b85811015613464578484038952815161344585826133e0565b9450613450836133f4565b925060208a0199505060018101905061342c565b50829750879550505050505092915050565b600060208201905081810360008301526134908184613401565b905092915050565b6000806000606084860312156134b1576134b0612ca3565b5b60006134bf86828701612daa565b93505060206134d086828701612daa565b92505060406134e186828701613131565b9150509250925092565b7f4e487b7100000000000000000000000000000000000000000000000000000000600052604160045260246000fd5b7f4e487b7100000000000000000000000000000000000000000000000000000000600052603260045260246000fd5b7f4e487b7100000000000000000000000000000000000000000000000000000000600052602260045260246000fd5b6000600282049050600182168061359057607f821691505b6020821081036135a3576135a2613549565b5b50919050565b7f4e487b7100000000000000000000000000000000000000000000000000000000600052601160045260246000fd5b60006135e382612950565b91507fffffffffffffffffffffffffffffffffffffffffffffffffffffffffffffffff8203613615576136146135a9565b5b600182019050919050565b600081905092915050565b60008190508160005260206000209050919050565b6000815461364d81613578565b6136578186613620565b945060018216600081146136725760018114613687576136ba565b60ff19831686528115158202860193506136ba565b6136908561362b565b60005b838110156136b257815481890152600182019150602081019050613693565b838801955050505b50505092915050565b60006136cf8284613640565b915081905092915050565b7f5573657220616c72656164792065786973747300000000000000000000000000600082015250565b600061371060138361302e565b915061371b826136da565b602082019050919050565b6000602082019050818103600083015261373f81613703565b9050919050565b82818337600083830152505050565b60006137618385613620565b935061376e838584613746565b82840190509392505050565b6000613787828486613755565b91508190509392505050565b7f496e76616c696420757365722074797065000000000000000000000000000000600082015250565b60006137c960118361302e565b91506137d482613793565b602082019050919050565b600060208201905081810360008301526137f8816137bc565b9050919050565b60008190508160005260206000209050919050565b60006020601f8301049050919050565b600082821b905092915050565b6000600883026138617fffffffffffffffffffffffffffffffffffffffffffffffffffffffffffffffff82613824565b61386b8683613824565b95508019841693508086168417925050509392505050565b6000819050919050565b60006138a86138a361389e84612950565b613883565b612950565b9050919050565b6000819050919050565b6138c28361388d565b6138d66138ce826138af565b848454613831565b825550505050565b600090565b6138eb6138de565b6138f68184846138b9565b505050565b5b8181101561391a5761390f6000826138e3565b6001810190506138fc565b5050565b601f82111561395f57613930816137ff565b61393984613814565b81016020851015613948578190505b61395c61395485613814565b8301826138fb565b50505b505050565b600082821c905092915050565b600061398260001984600802613964565b1980831691505092915050565b600061399b8383613971565b9150826002028217905092915050565b6139b482612969565b67ffffffffffffffff8111156139cd576139cc6134eb565b5b6139d78254613578565b6139e282828561391e565b600060209050601f831160018114613a155760008415613a03578287015190505b613a0d858261398f565b865550613a75565b601f198416613a23866137ff565b60005b82811015613a4b57848901518255600182019150602085019450602081019050613a26565b86831015613a685784890151613a64601f891682613971565b8355505b6001600288020188555050505b505050505050565b7f496e76616c696420696e70757473000000000000000000000000000000000000600082015250565b6000613ab3600e8361302e565b9150613abe82613a7d565b602082019050919050565b60006020820190508181036000830152613ae281613aa6565b9050919050565b7f496e76616c696420757365720000000000000000000000000000000000000000600082015250565b6000613b1f600c8361302e565b9150613b2a82613ae9565b602082019050919050565b60006020820190508181036000830152613b4e81613b12565b9050919050565b7f4f6e6c79206d616e7566616374757265722063616e206164642070726f64756360008201527f7473000000000000000000000000000000000000000000000000000000000000602082015250565b6000613bb160228361302e565b9150613bbc82613b55565b604082019050919050565b60006020820190508181036000830152613be081613ba4565b9050919050565b7f4475706c69636174652070726f647563742069642c2074727920616761696e00600082015250565b6000613c1d601f8361302e565b9150613c2882613be7565b602082019050919050565b60006020820190508181036000830152613c4c81613c10565b9050919050565b7f4e6f20737563682070726f647563740000000000000000000000000000000000600082015250565b6000613c89600f8361302e565b9150613c9482613c53565b602082019050919050565b60006020820190508181036000830152613cb881613c7c565b9050919050565b6000613cca82612950565b9150613cd583612950565b925082821015613ce857613ce76135a9565b5b828203905092915050565b7f5468652070726f64756374206d757374206465706172742066726f6d2074686560008201527f2063757272656e7420686f6c6465720000000000000000000000000000000000602082015250565b6000613d4f602f8361302e565b9150613d5a82613cf3565b604082019050919050565b60006020820190508181036000830152613d7e81613d42565b9050919050565b7f5468652070726f647563742073686f756c64206172726976652066726f6d207460008201527f68652073616d652070726576696f757320686f6c646572000000000000000000602082015250565b6000613de160378361302e565b9150613dec82613d85565b604082019050919050565b60006020820190508181036000830152613e1081613dd4565b9050919050565b6000819050919050565b6000613e2c82613e17565b91507f80000000000000000000000000000000000000000000000000000000000000008203613e5e57613e5d6135a9565b5b600182039050919050565b7f5468652070726f64756374206d757374206172726976652066726f6d2074686560008201527f2070726576696f757320686f6c64657200000000000000000000000000000000602082015250565b6000613ec560308361302e565b9150613ed082613e69565b604082019050919050565b60006020820190508181036000830152613ef481613eb8565b9050919050565b7f5468652070726f647563742063616e6e6f742064657061727420746f2074686560008201527f2073616d652070726576696f757320686f6c6465720000000000000000000000602082015250565b6000613f5760358361302e565b9150613f6282613efb565b604082019050919050565b60006020820190508181036000830152613f8681613f4a565b9050919050565b6000819050919050565b613fa8613fa382612950565b613f8d565b82525050565b600081905092915050565b6000613fc58385613fae565b9350613fd2838584613746565b82840190509392505050565b6000613fea8287613f97565b602082019150613ffa8286613f97565b60208201915061400b828486613fb9565b915081905095945050505050565b7f4e487b7100000000000000000000000000000000000000000000000000000000600052601260045260246000fd5b600061405382612950565b915061405e83612950565b92508261406e5761406d614019565b5b82820690509291505056fea26469706673582212207f6e512779ef445ade885b433012ccef3b205f4ec6fadedec1a0923c342b816564736f6c634300080f0033",
  "linkReferences": {},
  "deployedLinkReferences": {}
}